:1000000012C02CC02BC02AC029C028C027C026C0BF
:1000100025C086C723C022C021C020C01FC01EC06B
:100020001DC01CC01BC011241FBECFE5D4E0DEBF25
:10003000CDBF10E0A0E6B0E0EAE2F2E102C0059038
:100040000D92AC3DB107D9F711E0ACEDB0E001C0C5
:100050001D92A230B107E1F7DAD7E5C8D1CF8FB949
:10006000779BFECF0895779BFECF8FB10895EF92D7
:10007000FF920F931F93CF93DF938C017B01EA01D3
:10008000C298E091C300F091C40080818FB9779B42
:10009000FECF61E070E0EFEFAB0141505040EFB9AF
:1000A000779BFECF779BFECF2FB1EFB9779BFECF2B
:1000B000779BFECF8FB141305105A9F042305105F9
:1000C00029F1452BA9F4992787FD9095982F88272A
:1000D000332727FD3095820F931FD8018D939C9372
:1000E0006F5F7F4FD9CFD7011C9211968C93F8CFB9
:1000F00063307105ACF38DE08A95F1F7C29ADF9118
:10010000CF911F910F91FF90EF90089518828983EE
:10011000F2CF0F931F93CF93DF93EC01DB018A01A2
:10012000AC9888EE8FB9779BFECF61E070E0EFEF7F
:10013000AB0141505040EFB9779BFECF779BFECF8C
:100140002FB1EFB9779BFECF779BFECF8FB14130B8
:100150005105A1F04230510559F1452BE9F4992799
:1001600087FD9095982F8827332727FD3095820F9C
:10017000931F998388836F5F7F4FDACF992787FD1D
:100180009095982F8827332727FD3095820F931F4E
:1001900011969C938E93EFCF6330710564F38DE0DD
:1001A0008A95F1F7AC9ADF91CF911F910F91089545
:1001B000992787FD9095982F8827332727FD30951D
:1001C000820F931FF80191838083E9CF87B1856403
:1001D00087B986B1866886B90895369A3699FECF72
:1001E00024B135B1C90108958CE287BBA49AAC9AB9
:1001F000C29A81E58DB9C29880E28FB9779BFECF14
:100200008FE58FB9779BFECFC29A80E29EE401977B
:10021000F1F7AC9880E28FB9779BFECF8091B40064
:100220008FB9779BFECF779BFECF6FB1772767FDA6
:100230007095872F972F4AE04AD680E690E028D61F
:10024000AC9A80E29EE40197F1F7AC988FE88FB901
:10025000779BFECF8FEF8FB9779BFECF779BFECF3B
:100260006FB1772767FD7095872F972F4AE02FD6BC
:10027000AC9A089588B3836088BB0895662379F0AB
:1002800090E021E030E0A901489F9001499F300DA6
:10029000589F300D11246150B1F7C901089521E034
:1002A00030E0FBCF2F923F924F925F926F927F92FE
:1002B0008F929F92AF92BF92CF92DF92EF92FF9276
:1002C0000F931F93DF93CF9300D000D000D0CDB712
:1002D000DEB75B013A0169011E830D83F90180815C
:1002E00091819C01442737FD4095542F29833A83FF
:1002F0004B835C83882477FC8094982C660C771C55
:10030000881C991CF80120803180442437FC4094DB
:10031000542CB501882777FD8095982F660F771F9D
:10032000881F991FA20191018ED62FEF3FE740E071
:1003300050E0FDD679018A0169817A818B819C81A7
:10034000A401930180D62FEF3FE740E050E0EFD6C5
:10035000E20EF31EF601F182E082C201B101A401B6
:10036000930171D62FEF3FE740E050E0E0D67901EE
:100370008A01B094A194B108B394CC24B7FCC09482
:10038000DC2CAA0CBB1CCC1CDD1CC601B5012981D0
:100390003A814B815C8157D62FEF3FE740E050E038
:1003A000C6D6E20EF31EED81FE81F182E082269632
:1003B0000FB6F894DEBF0FBECDBFCF91DF911F9176
:1003C0000F91FF90EF90DF90CF90BF90AF909F90F4
:1003D0008F907F906F905F904F903F902F900895F7
:1003E000CF93DF93EC01FC01E856FE4F80819181B1
:1003F000019668EC70E066D6808391836AE070E0D5
:1004000061D6892B19F0DF91CF910895E6DE9C012A
:10041000C057DE4F99838883C059D140855690409C
:100420008F58914038F0CA56DE4F19821882DF91FA
:10043000CF910895FE01EC56FE4F80819181CE56FA
:10044000DE4F9983888331832083FE013496A9018E
:10045000481B590BCA0157FD09C09595879595957D
:10046000879591838083DF91CF9108950396F5CF8F
:100470002F923F924F925F926F927F928F929F92B4
:10048000AF92BF92CF92DF92EF92FF920F931F93A2
:10049000DF93CF93CDB7DEB728970FB6F894DEBFC2
:1004A0000FBECDBF98878F831A8219821C821B8250
:1004B0001E821D8200E010E055E0252E312C2C0E0E
:1004C0003D1E2E010894411C511CC201BE016D5FEE
:1004D0007F4FA101CCDD0F5F1F4F083C1105A9F72D
:1004E000AA24BB246501662477244301EE24FF245B
:1004F0008701C201BE016D5F7F4FA101B8DD898117
:100500009A81AA2797FDA095BA2FA80EB91ECA1ED8
:10051000DB1E8D819E81AA2797FDA095BA2F680EBC
:10052000791E8A1E9B1E8AE0AFD48DE0ADD482E690
:1005300090E0AED4C601B5014AE0C9D489E0A4D4A4
:1005400084E790E0A5D4C401B3014AE0C0D489E0B7
:100550009BD486E890E09CD4C801B7014AE0B7D4A8
:100560000894E11CF11C011D111D88EEE81683E0C2
:10057000F80680E0080780E0180709F0BACF0F817D
:10058000188505571D4FC601B50128EE33E040E040
:1005900050E0CDD5F80131832083EF80F8848DE8D9
:1005A00092E0E80EF91EC401B30128EE33E040E00A
:1005B00050E0BDD5F701318320838AE065D48DE01A
:1005C00063D48CE890E064D4F8016081718188275D
:1005D00077FD8095982F4AE07AD489E055D480EA57
:1005E00090E056D4F70160817181882777FD80956E
:1005F000982F4AE06CD428960FB6F894DEBF0FBE51
:10060000CDBFCF91DF911F910F91FF90EF90DF90C1
:10061000CF90BF90AF909F908F907F906F905F90A2
:100620004F903F902F9008952F923F924F925F925C
:100630006F927F928F929F92AF92BF92CF92DF92F2
:10064000EF92FF920F931F93DF93CF93CDB7DEB757
:100650002E970FB6F894DEBF0FBECDBF5C011B0115
:1006600000E010E002969A83898333E8832E32E01B
:10067000932E840E951ED5011796BC83AB8327E875
:10068000622E22E0722E640E751EFA01E157FD4FB4
:10069000FE83ED83C5010C9698878F83D5011F9645
:1006A000BA87A987FA01EA56FE4FFC87EB87021545
:1006B00013050CF06AC099E5C92E88E5582EB1E4FF
:1006C0004B2E0115110559F4E7E4D501EC930231E5
:1006D000110564F0F501E00FF11F408207C0013001
:1006E000110509F06FC0D50111965C920F5F1F4F85
:1006F0000230110509F06EC089819A819E878D872D
:10070000A3E0DA2ED401ED90FD900D911C91DD2037
:1007100009F416C14D2D21E030E0C901880F991F61
:10072000220F331F220F331F220F331F280F391FB1
:10073000415099F740E050E0C801B701F8D4CA0130
:10074000B9012AE030E040E050E0F1D4CB0177FD80
:1007500035C06D857E854AE050E004D5DA94ED859C
:10076000FE853196FE87ED87FFEFDF1659F606E02E
:1007700010E00C30110509F4C5C00E30110509F464
:100780006DC0021513050CF49CCF2E960FB6F8948D
:10079000DEBF0FBECDBFCF91DF911F910F91FF90B4
:1007A000EF90DF90CF90BF90AF909F908F907F9011
:1007B0006F905F904F903F902F9008959095819506
:1007C0009F4FC7CF0630110509F0F8C0F501C6826A
:1007D00007E010E00730110561F68B819C819E8750
:1007E0008D8773E0D72ED301ED90FD900D911C9174
:1007F000DD2009F493C04D2D21E030E0C901880FC0
:10080000991F220F331F220F331F220F331F280F70
:10081000391F415099F740E050E0C801B70187D433
:10082000CA01B9012AE030E040E050E080D4CB01B9
:1008300077FD64C06D857E854AE050E093D4DA94FC
:10084000ED85FE853196FE87ED87FFEFDF1659F6C1
:100850000BE010E00E30110509F093CF6501E9843B
:10086000FA8480E090E01E861D861FE0412E512C08
:10087000AB85BC85ED91FC9122E0281B09F489C071
:1008800061E070E0CB01880F991F660F771F660F3C
:10089000771F660F771F680F791F215099F7CF01D7
:1008A000FDD3CB016AE070E00DD49C018D859E855F
:1008B000892B09F05DC0F7FD6FC0E0E3D6011E96FD
:1008C000EC9337FD6FC0C901B7014AE050E04AD44C
:1008D000A2E0B0E0BE87AD87EB85FC858081918189
:1008E00097FD64C08D859E850894411C511C089419
:1008F000C11CD11C0894E11CF11CBACF90958195C4
:100900009F4F98CFAD81BE818C9190E06F817885AB
:100910004AE050E027D40DE010E033CFC801B70122
:100920002AE030E040E050E002D4CB0177FD18C06F
:100930006D857E854AE050E015D40BE010E08ACF4B
:10094000C801B7012AE030E040E050E0F0D3CB012D
:1009500077FD0AC06D857E854AE050E003D407CF5D
:10096000909581959F4FE4CF909581959F4FF2CFC1
:10097000820137FD1FC0C901B7014AE050E0F2D340
:100980008D859E8501969E878D8704970CF08FCE6E
:10099000A3CF61E070E083CFEDE2D6011E96EC9329
:1009A00037FF91CF309521953F4F8DCF8D859E8517
:1009B00001979ACF309521953F4FDDCF0B30110530
:1009C00039F4ECE4D5011B96EC930CE010E0D1CEA9
:1009D0000D30110509F07BCEE6E5D5011D96EC93AF
:1009E0000EE010E0CACE2F923F924F925F926F922C
:1009F0007F928F929F92AF92BF92CF92DF92EF92AF
:100A0000FF920F931F93DF93CF93CDB7DEB760971D
:100A10000FB6F894DEBF0FBECDBF5B012A0186562C
:100A20009E4FDC016D937D934D935D9311963C93A6
:100A30002E93AE59B140B88BAF87FD01EC50FE4FFD
:100A400080818F5F6AE01ED3A92F9083B0E0FD0103
:100A5000E452FF4FEE0FFF1F4F855889E40FF51F3B
:100A6000B182A082AA51BF4FFD01EE0FFF1FE40F1C
:100A7000F51F518240821A96AA0FBB1FA40FB51F03
:100A80002D933C9386B341575D4F86958095817039
:100A9000DA018C93AF58B240B88BAF87C801AA2750
:100AA00097FDA095BA2F8D839E83AF83B887C90128
:100AB000AA2797FDA095BA2F880F991FAA1FBB1FC1
:100AC00089839A83AB83BC83EE24D7FCE094FE2C0D
:100AD000B201882777FD8095982F660F771F881FB2
:100AE000991FA7019601AFD22FEF3FE740E050E0FA
:100AF0001ED349015A0169817A818B819C812D81A4
:100B00003E814F8158859FD22FEF3FE740E050E074
:100B10000ED3820E931EC401AA2797FDA095BA2F6B
:100B200089879A87AB87BC87AF85B889AD58BD4F99
:100B3000BE87AD87EF85F889E557FD4F208131816C
:100B4000EB58F240F88BEF87220F331F442737FD15
:100B50004095542FA7E72A2EA2E03A2E2E0E3F1ED4
:100B6000F10180819181A281B381280F391F4A1F31
:100B70005B1F89859A85AB85BC85280F391F4A1F65
:100B80005B1FCA01B901660F771F881F991F660F87
:100B9000771F881F991F620F731F841F951F22E004
:100BA00030E040E050E0C3D2AD85BE858D909D9091
:100BB000AD90BC901397821A930AA40AB50AFD015E
:100BC00080829182A282B382C701B60129813A81D3
:100BD0004B815C8138D22FEF3FE740E050E0A7D255
:100BE00079018A015094419451085394662457FC2A
:100BF0006094762C440C551C661C771CC301B20112
:100C00002D813E814F8158851ED22FEF3FE740E076
:100C100050E08DD2E20EF31E0027F7FC0095102F56
:100C20009BE7692E92E0792E4F855889640E751ED8
:100C300043575D4FDA012D913C911197AD58B24069
:100C4000B88BAF87220F331F442737FD4095542FB1
:100C5000FFE7CF2EF2E0DF2ECA0EDB1EF601808109
:100C60009181A281B381280F391F4A1F5B1F2E0D6E
:100C70003F1D401F511FCA01B901660F771F881F12
:100C8000991F660F771F881F991F620F731F841F9C
:100C9000951F22E030E040E050E049D2F30180812E
:100CA0009181A281B381821B930BA40BB50B80832E
:100CB0009183A283B38389859A85AB85BC85F10135
:100CC00080839183A283B383D601ED92FD920D932D
:100CD0001C931397B1E38B16B7E59B06B5E0AB0603
:100CE000B0E0BB0654F080E397E5A5E0B0E0ED8509
:100CF000FE8580839183A283B383F30180819181F8
:100D0000A281B38181539745A540B0404CF080E368
:100D100097E5A5E0B0E0F30180839183A283B383DC
:100D2000ED85FE8580819181A281B381B7FD7CC074
:100D3000F30180819181A281B381B7FF06C0D30105
:100D40001D921D921D921C921397EF85F889ED5705
:100D5000FD4FF88BEF87AD85BE856D917D918D91AF
:100D60009C9127EC31E040E050E0BFD1EF85F8895D
:100D70002193319341935193F88BEF87F301808155
:100D80009181A281B381892F9A2FAB2FBB27EF8549
:100D9000F88980839183A283B383E758F240F88B6C
:100DA000EF87E856FE4F80819181019668EC70E0F4
:100DB00089D1808391836AE070E084D1892BC9F066
:100DC00060960FB6F894DEBF0FBECDBFCF91DF9116
:100DD0001F910F91FF90EF90DF90CF90BF90AF9059
:100DE0009F908F907F906F905F904F903F902F904B
:100DF0000895F3D99C014F85588940575E4FDA0119
:100E000011969C938E93A059B140B88BAF878556AD
:100E100090408F58914068F08F8598898A569E4FF0
:100E2000DC011D921C92CCCF10821182128213829F
:100E30007FCFEF85F889EC56FE4F808191814F85F9
:100E400058894E565E4F588B4F87DA0111969C9306
:100E50008E9331832083FA013496A901481B590BE4
:100E6000CA0157FD07C095958795959587959183FC
:100E70008083A6CF0396F7CF10BC8CE089B988E1B8
:100E80008AB986E880BD08955D9BFECF8CB9089530
:100E9000FC018081882339F031965D9BFECF8CB9AF
:100EA00080818823C9F70895FC018491882339F053
:100EB00031965D9BFECF8CB984918823C9F7089544
:100EC00083B7856083BF89B7816089BF08950F9319
:100ED0001F93DF93CF93CDB7DEB761970FB6F8942A
:100EE000DEBF0FBECDBF242F8E010F5F1F4FA801A5
:100EF00030E057D18981882341F0F80131965D9B1C
:100F0000FECF8CB980818823C9F761960FB6F8941B
:100F1000DEBF0FBECDBFCF91DF911F910F9108951E
:100F20001F920F920FB60F921124CF92DF92EF9281
:100F3000FF920F931F932F933F934F935F936F9362
:100F40007F938F939F93AF93BF93EF93FF9386EF1E
:100F500090E068EF70E04AEF50E089D88CEF90E0C5
:100F60006EEF70E040E051E0D4D86091FC007091E9
:100F7000FD004091FE005091FF0020910001309152
:100F800001010091F6001091F700E090F800F09058
:100F9000F900C090FA00D090FB008091DC009091A5
:100FA000DD0021DD4091DC005091DD008FED90E00F
:100FB00066E170E039DB8FED90E06ADF8AE064DFA4
:100FC0008DE062DF2091DE00822F63E05BD0992309
:100FD00021F485B398E0892785BB2F5F2093DE003D
:100FE000FF91EF91BF91AF919F918F917F916F9101
:100FF0005F914F913F912F911F910F91FF90EF9033
:10100000DF90CF900F900FBE0F901F90189534DF98
:10101000A39AAB9AE9D82ED953DFD8D81092F5000D
:101020008091DC009091DD0023DA789428EE33E0A3
:1010300048EC50E0CA010197F1F721503040D1F758
:1010400028EE33E0F7CF629FD001739FF001829FBB
:10105000E00DF11D649FE00DF11D929FF00D839F47
:10106000F00D749FF00D659FF00D9927729FB00DE4
:10107000E11DF91F639FB00DE11DF91FBD01CF01F7
:1010800011240895991B79E004C0991F961708F060
:10109000961B881F7A95C9F780950895AA1BBB1BDC
:1010A00051E107C0AA1FBB1FA617B70710F0A61B68
:1010B000B70B881F991F5A95A9F780959095BC0189
:1010C000CD01089597FB092E07260AD077FD04D09D
:1010D000E5DF06D000201AF4709561957F4F0895E2
:1010E000F6F7909581959F4F0895A1E21A2EAA1BBD
:1010F000BB1BFD010DC0AA1FBB1FEE1FFF1FA217C8
:10110000B307E407F50720F0A21BB30BE40BF50BC4
:10111000661F771F881F991F1A9469F7609570954D
:10112000809590959B01AC01BD01CF01089597FB7F
:10113000092E05260ED057FD04D0D7DF0AD0001C9B
:1011400038F450954095309521953F4F4F4F5F4F64
:101150000895F6F790958095709561957F4F8F4F24
:101160009F4F0895FB019F01E8944230BCF0453247
:10117000ACF44A3029F497FB1EF4909581959F4F6B
:10118000642F77278BDF805D8A330CF0895D819334
:10119000CB010097A9F716F45DE251931082C901C3
:1011A00032C0FA01CF93FF93EF9322303CF1253206
:1011B0002CF5C22FE894CA3049F497FB3EF4909581
:1011C0008095709561957F4F8F4F9F4F2C2F3327C0
:1011D00044275527FF93EF9388DFEF91FF91605DE0
:1011E0006A330CF0695D6193B901CA0160507040C7
:1011F0008040904059F716F4CDE2C19310828F9150
:101200009F91CF9100C0DC01FC01672F7191772382
:10121000E1F7329704C07C916D9370836291AE17B1
:0A122000BF07C8F30895F894FFCF4C
:10122A002000205350492058206469766964656417
:10123A00203D200020535049205A20646976696471
:10124A006564203D20002049203D200020706F73F6
:10125A005863616C6962726174696F6E203D200027
:10126A0020706F735A63616C6962726174696F6E20
:10127A00203D20006F205FE8A8A9AAABACAD8FB5CE
:10128A0000B600B700B800B900BA00BB00BC00BD88
:0C129A0000BE00C70100000001000000C1
:00000001FF
