:1000000012C02CC02BC02AC029C028C027C026C0BF
:1000100025C068C723C022C021C020C01FC01EC089
:100020001DC01CC01BC011241FBECFE5D4E0DEBF25
:10003000CDBF10E0A0E6B0E0E4EEF1E102C0059033
:100040000D92AC3DB107D9F711E0ACEDB0E001C0C5
:100050001D92A230B107E1F7BCD7C2C8D1CF8FB98A
:10006000779BFECF0895779BFECF8FB10895EF92D7
:10007000FF920F931F93CF93DF938C017B01EA01D3
:10008000C298E091C300F091C40080818FB9779B42
:10009000FECF61E070E0EFEFAB0141505040EFB9AF
:1000A000779BFECF779BFECF2FB1EFB9779BFECF2B
:1000B000779BFECF8FB141305105A9F042305105F9
:1000C00029F1452BA9F4992787FD9095982F88272A
:1000D000332727FD3095820F931FD8018D939C9372
:1000E0006F5F7F4FD9CFD7011C9211968C93F8CFB9
:1000F00063307105ACF38DE08A95F1F7C29ADF9118
:10010000CF911F910F91FF90EF90089518828983EE
:10011000F2CF0F931F93CF93DF93EC01DB018A01A2
:10012000AC9888EE8FB9779BFECF61E070E0EFEF7F
:10013000AB0141505040EFB9779BFECF779BFECF8C
:100140002FB1EFB9779BFECF779BFECF8FB14130B8
:100150005105A1F04230510559F1452BE9F4992799
:1001600087FD9095982F8827332727FD3095820F9C
:10017000931F998388836F5F7F4FDACF992787FD1D
:100180009095982F8827332727FD3095820F931F4E
:1001900011969C938E93EFCF6330710564F38DE0DD
:1001A0008A95F1F7AC9ADF91CF911F910F91089545
:1001B000992787FD9095982F8827332727FD30951D
:1001C000820F931FF80191838083E9CF87B1856403
:1001D00087B986B1866886B90895369A3699FECF72
:1001E00024B135B1C90108958CE287BBA49AAC9AB9
:1001F000C29A81E58DB9C29880E28FB9779BFECF14
:100200008FE58FB9779BFECFC29A80E29EE401977B
:10021000F1F7AC9880E28FB9779BFECF8091B40064
:100220008FB9779BFECF779BFECF6FB1772767FDA6
:100230007095872F972F4AE02CD680E690E00AD65B
:10024000AC9A80E29EE40197F1F7AC988FE88FB901
:10025000779BFECF8FEF8FB9779BFECF779BFECF3B
:100260006FB1772767FD7095872F972F4AE011D6DA
:10027000AC9A089588B3836088BB0895662379F0AB
:1002800090E021E030E0A901489F9001499F300DA6
:10029000589F300D11246150B1F7C901089521E034
:1002A00030E0FBCF2F923F924F925F926F927F92FE
:1002B0008F929F92AF92BF92CF92DF92EF92FF9276
:1002C0000F931F93DF93CF9300D000D000D0CDB712
:1002D000DEB75B013A0169011E830D83F90180815C
:1002E00091819C01442737FD4095542F29833A83FF
:1002F0004B835C83882477FC8094982C660C771C55
:10030000881C991CF80120803180442437FC4094DB
:10031000542CB501882777FD8095982F660F771F9D
:10032000881F991FA20191016BD62FEF3FE740E094
:1003300050E0DAD679018A0169817A818B819C81CA
:10034000A40193015DD62FEF3FE740E050E0CCD60B
:10035000E20EF31EF601F182E082C201B101A401B6
:1003600093014ED62FEF3FE740E050E0BDD6790134
:100370008A01B094A194B108B394CC24B7FCC09482
:10038000DC2CAA0CBB1CCC1CDD1CC601B5012981D0
:100390003A814B815C8134D62FEF3FE740E050E05B
:1003A000A3D6E20EF31EED81FE81F182E082269655
:1003B0000FB6F894DEBF0FBECDBFCF91DF911F9176
:1003C0000F91FF90EF90DF90CF90BF90AF909F90F4
:1003D0008F907F906F905F904F903F902F900895F7
:1003E000EF92FF920F931F93CF93DF937C01FC0159
:1003F000E856FE4F80819181019668EC70E03FD60F
:100400009C018083318380FD3FC000E010E0C0E0AC
:10041000D0E0E3DE080F191F2196C832D105C9F7D5
:10042000C80168E270E02BD69B0140E951E0E40E80
:10043000F51ED7016D937C93E0E7FEEFEE0EFF1EF5
:10044000CB01C3978D5D964230F5F701EC56FE4F18
:100450008081918142E951E0E40EF51ED7018D9330
:100460009C934EE65EEFE40EF51E7183608383334A
:100470009105FCF4F701EA56FE4F808191810996BF
:10048000439710F411821082DF91CF911F910F9149
:10049000FF90EF90089586E991E0E80EF91ED701EC
:1004A0001D921C92DF91CF911F910F91FF90EF90C1
:1004B0000895F701EA56FE4F281B390B318320833C
:1004C000C901DDCF2F923F924F925F926F927F9240
:1004D0008F929F92AF92BF92CF92DF92EF92FF9254
:1004E0000F931F93DF93CF93CDB7DEB728970FB647
:1004F000F894DEBF0FBECDBF98878F831A82198212
:100500001C821B821E821D8200E010E045E0242E2A
:10051000312C2C0E3D1E2E010894411C511CC20191
:10052000BE016D5F7F4FA101A2DD0F5F1F4F083C31
:100530001105A9F7AA24BB24650166247724430189
:10054000EE24FF248701C201BE016D5F7F4FA10130
:100550008EDD89819A81AA2797FDA095BA2FA80ED2
:10056000B91ECA1EDB1E8D819E81AA2797FDA0950C
:10057000BA2F680E791E8A1E9B1E8AE067D48DE012
:1005800065D482E690E066D4C601B5014AE081D424
:1005900089E05CD484E790E05DD4C401B3014AE013
:1005A00078D489E053D486E890E054D4C801B701E8
:1005B0004AE06FD40894E11CF11C011D111D88EE66
:1005C000E81683E0F80680E0080780E0180709F0E5
:1005D000BACF0F81188505571D4FC601B50128EE0A
:1005E00033E040E050E080D5F80131832083EF8094
:1005F000F8848DE892E0E80EF91EC401B30128EEFC
:1006000033E040E050E070D5F701318320838AE089
:100610001DD48DE01BD48CE890E01CD4F8016081DF
:100620007181882777FD8095982F4AE032D489E040
:100630000DD480EA90E00ED4F701608171818827A3
:1006400077FD8095982F4AE024D428960FB6F89429
:10065000DEBF0FBECDBFCF91DF911F910F91FF90F5
:10066000EF90DF90CF90BF90AF909F908F907F9052
:100670006F905F904F903F902F9008952F923F92F0
:100680004F925F926F927F928F929F92AF92BF92A2
:10069000CF92DF92EF92FF920F931F93DF93CF934E
:1006A000CDB7DEB72E970FB6F894DEBF0FBECDBF25
:1006B0005C011B0100E010E002969A83898333E815
:1006C000832E32E0932E840E951ED5011796BC839F
:1006D000AB8327E8622E22E0722E640E751EFA01AB
:1006E000E157FD4FFE83ED83C5010C9698878F83FC
:1006F000D5011F96BA87A987FA01EA56FE4FFC87F3
:10070000EB87021513050CF06AC099E5C92E88E540
:10071000582EB1E44B2E0115110559F4E7E4D5012B
:10072000EC930231110564F0F501E00FF11F4082F6
:1007300007C00130110509F06FC0D50111965C9218
:100740000F5F1F4F0230110509F06EC089819A8139
:100750009E878D87A3E0DA2ED401ED90FD900D9158
:100760001C91DD2009F413C14D2D21E030E0C901B9
:10077000880F991F220F331F220F331F220F331FA1
:10078000280F391F415099F740E050E0C801B701E8
:10079000ABD4CA01B9012AE030E040E050E0A4D473
:1007A000CB0177FD35C06D857E854AE050E0B7D43A
:1007B000DA94ED85FE853196FE87ED87FFEFDF1633
:1007C00059F606E010E00C30110509F4C2C00E30F5
:1007D000110509F46DC0021513050CF49CCF2E967B
:1007E0000FB6F894DEBF0FBECDBFCF91DF911F9142
:1007F0000F91FF90EF90DF90CF90BF90AF909F90C0
:100800008F907F906F905F904F903F902F900895C2
:10081000909581959F4FC7CF0630110509F0F4C020
:10082000F501C68207E010E00730110561F68B8103
:100830009C819E878D8773E0D72ED301ED90FD902C
:100840000D911C91DD2009F490C04D2D21E030E088
:10085000C901880F991F220F331F220F331F220F48
:10086000331F280F391F415099F740E050E0C8016D
:10087000B7013AD4CA01B9012AE030E040E050E0C3
:1008800033D4CB0177FD61C06D857E854AE050E0B1
:1008900046D4DA94ED85FE853196FE87ED87FFEF2D
:1008A000DF1659F60BE010E00E30110509F093CF7A
:1008B000E985FA85FE87ED87750155240FE0C02E86
:1008C000D12C10E3412EAB85BC85ED91FC91852D9B
:1008D00081958D3F09F483C0282F2E5F61E070E081
:1008E000CB01880F991F660F771F660F771F660F62
:1008F000771F680F791F215098F7CF01F7FD7BC054
:10090000AAD3CB016AE070E0A6D39C01552009F080
:1009100056C0F7FD67C0D7011E964C929C0197FD0B
:1009200066C0C9016D857E854AE050E0F8D352E08B
:10093000552E0894C11CD11C8D859E8501969E87DD
:100940008D870894E11CF11CBECF909581959F4F37
:100950009BCFAD81BE818C9190E06F8178854AE01C
:1009600050E0DDD30DE010E036CFC801B7012AE03A
:1009700030E040E050E0B8D3CB0177FD18C06D8582
:100980007E854AE050E0CBD30BE010E08DCFC8016C
:10099000B7012AE030E040E050E0A6D3CB0177FD7C
:1009A0000AC06D857E854AE050E0B9D30ACF9095A4
:1009B00081959F4FE4CF909581959F4FF2CF86010F
:1009C0009C0197FD1DC0C9016D857E854AE050E000
:1009D000A6D35394B3E0B5150CF493CEAACF61E03F
:1009E00070E08BCF8DE2F701868737FF9ACF309585
:1009F00021953F4F96CF882799278E1B9F0B80CF3D
:100A0000309521953F4FDFCF0B30110539F4ECE4E1
:100A1000D5011B96EC930CE010E0D5CE0D301105FE
:100A200009F07FCEE6E5D5011D96EC930EE010E0CF
:100A3000CECE2F923F924F925F926F927F928F9283
:100A40009F92AF92BF92CF92DF92EF92FF920F935D
:100A50001F93DF93CF93CDB7DEB72A970FB6F894E5
:100A6000DEBF0FBECDBF1C015B015E834D837901EC
:100A70002AE931E0220E331ED1016D937D93FD01F1
:100A8000419351931F01F182E08222E63EEF220E54
:100A9000331EF101EC50FE4F80818F5F6AE0CFD2B0
:100AA000A92F9083B0E0FD01E452FF4FEE0FFF1F2E
:100AB000E20DF31DB182A082AA51BF4F9D01220F0A
:100AC000331F220D331DF901518340831A96AA0F5B
:100AD000BB1FA20DB31DED92FC9286B32FE832E04E
:100AE000220E331E869580958170D1018C93E8EE9D
:100AF000FFEF2E0E3F1EC801AA2797FDA095BA2F23
:100B00002C01F10180839183A283B3839601442752
:100B100037FD4095542F88E090E0280E391ED10112
:100B20002D933D934D935C931397E1E8FDEF2E0ECB
:100B30003F1EF101E557FD4F80819181880F991F7C
:100B4000481A590A400E511EF101E357FD4F8081AA
:100B50009181880F991FC81AD90AC20ED31E662424
:100B600057FC6094762C9701442737FD4095542F0D
:100B7000220F331F441F551F29833A834B835C8305
:100B8000EE24D7FCE094FE2CA1014D585D4F588710
:100B90004F83AD81BE81BD01882777FD8095982F59
:100BA000660F771F881F991FA701960129D22FEF83
:100BB0003FE740E050E098D249015A01C301B20139
:100BC00029813A814B815C811BD22FEF3FE740E0C6
:100BD00050E08AD2820E931EC401AA2797FDA095E9
:100BE000BA2FEF81F88580809180A280B380881A27
:100BF000990AAA0ABB0A80829182A282B382F10179
:100C0000E558FD4FFA87E987C701B60129813A8186
:100C10004B815C81F5D12FEF3FE740E050E064D29B
:100C200079018A012D813E81309521953F4FB9018F
:100C3000882777FD8095982F660F771F881F991F4B
:100C4000A3019201DDD12FEF3FE740E050E04CD20D
:100C5000E20EF31E9701442737FD4095542FE98596
:100C6000FA8580819181A281B381821B930BA40BB1
:100C7000B50B80839183A283B383F1E38F16F7E5ED
:100C80009F06F5E0AF06F0E0BF0654F080E397E57D
:100C9000A5E0B0E0EF81F88580839183A283B383E0
:100CA000E985FA8580819181A281B381815397453D
:100CB000A540B04054F080E397E5A5E0B0E0E985B9
:100CC000FA8580839183A283B383EF81F885808145
:100CD0009181A281B381B7FDA3C0E985FA858081A6
:100CE0009181A281B381B7FF04C010821182128268
:100CF0001382E3E8F2E02E0E3F1EAF81B8856D91BE
:100D00007D918D919C9127EC31E040E050E0CAD17B
:100D1000F10121933193419351931F01E985FA85A4
:100D200080819181A281B381892F9A2FAB2FBB271C
:100D3000F10180839183A283B38329E73DEF220EE3
:100D4000331EF101E856FE4F80819181019668ECD7
:100D500070E095D19C018083318380FD40C0CC241C
:100D6000DD2400E010E039DAC80ED91E0F5F1F4FF6
:100D700008321105C1F7C60168E270E080D19B011D
:100D800040E951E0240E351ED1016D937C93E0E7DC
:100D9000FEEF2E0E3F1ECB01C3978D5D9642C0F530
:100DA000F101EC56FE4F8081918142E951E0240E21
:100DB000351ED1018D939C934EE65EEF240E351EB9
:100DC000718360838333910584F5F101EA56FE4F08
:100DD000808191810996439710F4118210822A969E
:100DE0000FB6F894DEBF0FBECDBFCF91DF911F913C
:100DF0000F91FF90EF90DF90CF90BF90AF909F90BA
:100E00008F907F906F905F904F903F902F900895BC
:100E100086E991E0280E391ED1011D921C92DFCF88
:100E2000108211821282138258CFF101EA56FE4FCE
:100E3000281B390B31832083C901CCCF10BC8CE037
:100E400089B988E18AB986E880BD08955D9BFECFA7
:100E50008CB90895FC018081882339F031965D9B1F
:100E6000FECF8CB980818823C9F70895FC01849155
:100E7000882339F031965D9BFECF8CB9849188230D
:100E8000C9F7089583B7856083BF89B7816089BF3B
:100E900008950F931F93DF93CF93CDB7DEB761977C
:100EA0000FB6F894DEBF0FBECDBF242F8E010F5FAB
:100EB0001F4FA80130E052D18981882341F0F80109
:100EC00031965D9BFECF8CB980818823C9F76196EE
:100ED0000FB6F894DEBF0FBECDBFCF91DF911F914B
:100EE0000F9108951F920F920FB60F921124CF9277
:100EF000DF92EF92FF920F931F932F933F934F93A5
:100F00005F936F937F938F939F93AF93BF93EF9371
:100F1000FF9386EF90E068EF70E04AEF50E0A7D8CB
:100F20008CEF90E06EEF70E040E051E0F2D860911D
:100F3000FC007091FD004091FE005091FF00209157
:100F40000001309101010091F6001091F700E0904E
:100F5000F800F090F900C090FA00D090FB0080916A
:100F6000DC009091DD0065DD4091DC005091DD00FA
:100F70008FED90E066E170E081DB8FED90E06ADF5D
:100F80008AE064DF8DE062DF2091DE00822F63E083
:100F900056D0992321F485B398E0892785BB2F5F2C
:100FA0002093DE00FF91EF91BF91AF919F918F91C0
:100FB0007F916F915F914F913F912F911F910F9171
:100FC000FF90EF90DF90CF900F900FBE0F901F908B
:100FD000189534DFA39AAB9A07D94CD953DFF6D8CA
:100FE0001092F500789428EE33E048EC50E0CA0106
:100FF0000197F1F721503040D1F728EE33E0F7CFD9
:10100000629FD001739FF001829FE00DF11D649FEC
:10101000E00DF11D929FF00D839FF00D749FF00D78
:10102000659FF00D9927729FB00DE11DF91F639F19
:10103000B00DE11DF91FBD01CF0111240895991BC9
:1010400079E004C0991F961708F0961B881F7A95BF
:10105000C9F780950895AA1BBB1B51E107C0AA1FC1
:10106000BB1FA617B70710F0A61BB70B881F991F49
:101070005A95A9F780959095BC01CD01089597FBED
:10108000092E07260AD077FD04D0E5DF06D0002020
:101090001AF4709561957F4F0895F6F790958195B4
:1010A0009F4F0895A1E21A2EAA1BBB1BFD010DC084
:1010B000AA1FBB1FEE1FFF1FA217B307E407F50708
:1010C00020F0A21BB30BE40BF50B661F771F881FE4
:1010D000991F1A9469F760957095809590959B017A
:1010E000AC01BD01CF01089597FB092E05260ED056
:1010F00057FD04D0D7DF0AD0001C38F45095409536
:10110000309521953F4F4F4F5F4F0895F6F79095DB
:101110008095709561957F4F8F4F9F4F0895FB018C
:101120009F01E8944230BCF04532ACF44A3029F4D7
:1011300097FB1EF4909581959F4F642F77278BDF47
:10114000805D8A330CF0895D8193CB010097A9F70C
:1011500016F45DE251931082C90132C0FA01CF93B7
:10116000FF93EF9322303CF125322CF5C22FE89407
:10117000CA3049F497FB3EF490958095709561953F
:101180007F4F8F4F9F4F2C2F332744275527FF9397
:10119000EF9388DFEF91FF91605D6A330CF0695D3A
:1011A0006193B901CA01605070408040904059F786
:1011B00016F4CDE2C19310828F919F91CF9100C020
:1011C000DC01FC01672F71917723E1F7329704C0AE
:1011D0007C916D9370836291AE17BF07C8F3089539
:0411E000F894FFCFB1
:1011E400200020535049205820646976696465645E
:1011F400203D200020535049205A206469766964B8
:101204006564203D20002049203D200020706F733C
:101214005863616C6962726174696F6E203D20006D
:1012240020706F735A63616C6962726174696F6E66
:10123400203D20006F205FE8A8A9AAABACAD8FB514
:1012440000B600B700B800B900BA00BB00BC00BDCE
:0C12540000BE00C7010000000100000007
:00000001FF
