:1000000012C02CC02BC02AC029C028C027C026C0BF
:1000100025C0FFC523C022C021C020C01FC01EC0F4
:100020001DC01CC01BC011241FBECFE5D4E0DEBF25
:10003000CDBF10E0A0E6B0E0E6E1FFE002C0059031
:100040000D92AE3EB107D9F711E0AEEEB0E001C0BF
:100050001D92A331B107E1F768D65BC7D1CF8FB945
:10006000EEE2F0E080818823ECF70895EEE2F0E024
:1000700080818823ECF78FB10895AF92BF92CF9221
:10008000DF92EF92FF921F93CF93DF935C017B018E
:100090006A01E8E3F0E080818B7F8083E091D50006
:1000A000F091D6008081DBDFC1E0D0E001C0219675
:1000B0008FEFD5DFDBDF182F8FEFD1DFD7DF9E018A
:1000C0002150304021303105A1F022303105A9F016
:1000D000232BB9F4992787FD9095982F8827212FF6
:1000E000332727FD3095820F931FF501918380837D
:1000F000DECFF70110828183DACFF601108281838F
:1001000003C0C330D1059CF28DE08A95F1F7E8E396
:10011000F0E0808184608083DF91CF911F91FF9018
:10012000EF90DF90CF90BF90AF900895AF92BF92C5
:10013000CF92DF92FF920F931F93CF93DF935C01D7
:100140008B016A01E5E3F0E080818F7E808388EE99
:1001500086DFC1E0D0E001C021968FEF80DF86DF2F
:10016000F82E8FEF7CDF82DF9E012150304021305E
:100170003105A1F022303105A9F0232BB9F49927DC
:1001800087FD9095982F88272F2D332727FD3095B1
:10019000820F931FF50191838083DECFF8011082D7
:1001A0008183DACFF6011082818303C0C330D10589
:1001B0009CF28DE08A95F1F7E5E3F0E080818061C3
:1001C0008083F50160817181882777FD8095982F64
:1001D0004AE0FFD489E0CBD4F8016081718188279F
:1001E00077FD8095982F4AE0F4D489E0C0D4F601D9
:1001F00060817181882777FD8095982F4AE0E9D446
:100200008AE0B5D48DE0B3D4DF91CF911F910F91E7
:10021000FF90DF90CF90BF90AF900895EF92FF9244
:100220000F931F938CE287BBE4E3F0E08081806151
:1002300080830F2EF5E3EF2EFF24F02DF701808150
:100240008061808308E310E0F8018081846080830E
:1002500081E58DB980818B7F808380E200DF8FE52F
:10026000FEDEF80180818460808300E21EE4C80124
:100270000197F1F7F70180818F7E808380E2EFDEC6
:100280008091C600ECDEF2DE992787FD9095A92FBC
:10029000B92FBC01CD014AE09CD480E690E06FD438
:1002A000F701808180618083C8010197F1F7808127
:1002B0008F7E80838FE8D3DE8FEFD1DED7DE992764
:1002C00087FD9095A92FB92FBC01CD014AE081D4BB
:1002D000F7018081806180831F910F91FF90EF90E3
:1002E00008952F923F924F925F926F927F928F92DA
:1002F0009F92AF92BF92CF92DF92EF92FF920F93B5
:100300001F93DF93CF9300D000D0CDB7DEB79C838F
:100310008B83DB012801FC01E656FE4F718360836D
:10032000FC01E456FE4F51834083FC01E256FE4F30
:1003300031832083FC01EC50FE4F80818F5F6AE0A7
:1003400017D5692F908370E0CB0184529F4F880F9F
:10035000991FEB81FC81E80FF91FB183A083CB01CA
:100360008A519F4F880F991FEB81FC81E80FF91F7D
:100370005183408360517F4F660F771FEB81FC8173
:10038000E60FF71F3183208386B3EB81FC81E157B1
:10039000FD4F8695809581708083662457FC60941C
:1003A000762C0B811C810D581D4F8B819C818958A7
:1003B0009D4F9A838983EB81FC81E557FD4F8081B6
:1003C0009181880F991FAA2797FDA095BA2FE981DF
:1003D000FA812081318142815381281B390B4A0BDC
:1003E0005B0B240D351D461D571DCA01B901660F53
:1003F000771F881F991F660F771F881F991F620F2D
:10040000731F841F951F22E030E040E050E005D5C7
:10041000F80180809180A280B380821A930AA40A96
:10042000B50A80829182A282B382EE24D7FCE09446
:10043000FE2C0B811C8105581D4F0F2EFFE72F2E20
:10044000F2E03F2EF02D8B819C81280E391EFC019D
:10045000E357FD4F80819181880F991FAA2797FD4F
:10046000A095BA2FF1012081318142815381281B4F
:10047000390B4A0B5B0B2C0D3D1D4E1D5F1DCA0138
:10048000B901660F771F881F991F660F771F881F96
:10049000991F620F731F841F951F22E030E040E018
:1004A00050E0BBD4F80180819181A281B381280FF3
:1004B000391F4A1F5B1F2083318342835383E981A5
:1004C000FA814082518262827382F101C082D182BC
:1004D000E282F382F1E38F16F7E59F06F5E0AF06BF
:1004E000F0E0BF0664F0EB81FC81ED58FD4F80E346
:1004F00097E5A5E0B0E080839183A283B383EB818D
:10050000FC81E558FD4F80819181A281B3818153A7
:100510009745A540B04064F0EB81FC81E558FD4F64
:1005200080E397E5A5E0B0E080839183A283B38365
:10053000EB81FC81ED58FD4F80819181A281B381D7
:10054000BB2344F4EB81FC81ED58FD4F10821182F6
:1005500012821382EB81FC81E558FD4F80819181ED
:10056000A281B381BB2344F4EB81FC81E558FD4FAC
:1005700010821182128213820B811C810D571D4F34
:10058000EB81FC81ED58FD4F608171818281938107
:1005900027EC31E040E050E01ED4F80120833183A5
:1005A000428353832B813C8129573D4FEB81FC8152
:1005B000E558FD4F80819181A281B381892F9A2FC7
:1005C000AB2FBB27F90180839183A283B3830F9064
:1005D0000F900F900F90CF91DF911F910F91FF908F
:1005E000EF90DF90CF90BF90AF909F908F907F90D3
:1005F0006F905F904F903F902F900895E8E3F0E068
:100600008081836080830895662319F421E030E0BF
:100610000DC021E030E090E0A901489F9001499F82
:10062000300D589F300D11246150B1F7822F932F58
:1006300008952F923F924F925F926F927F928F9286
:100640009F92AF92BF92CF92DF92EF92FF920F9361
:100650001F93DF93CF93CDB7DEB728970FB6F894EB
:10066000DEBF0FBECDBF98878F831A8219821C828E
:100670001B821E821D8200E010E00F2EF3E0AF2EE1
:10068000BB24F02DAC0EBD1E0F2EF5E0CF2EDD24C9
:10069000F02DCC0EDD1E7E010894E11CF11CC7017B
:1006A000B501A601EADC0F5F1F4F04311105B9F750
:1006B000AA24BB246501662477244301EE24FF2489
:1006C00087010F2EF4E72F2EF0E03F2EF02D0F2E96
:1006D000F6E84F2EF0E05F2EF02DCE010196BE0120
:1006E0006D5F7F4FAE014B5F5F4FC7DC89819A81A1
:1006F000AA2797FDA095BA2FA80EB91ECA1EDB1E09
:100700008D819E81AA2797FDA095BA2F680E791E2C
:100710008A1E9B1E8AE02BD28DE029D282E690E0D1
:100720002ED2C601B5014AE054D289E020D2C101DF
:1007300026D2C401B3014AE04CD289E018D2C201EA
:100740001ED2C801B7014AE044D20894E11CF11C52
:10075000011D111D88EEE81683E0F80680E0080709
:1007600080E0180709F0B9CF0F81188505571D4F94
:10077000C601B50128EE33E040E050E04ED3F80169
:1007800031832083EF80F8848DE892E0E80EF91E33
:10079000C401B30128EE33E040E050E03ED3F7015E
:1007A000318320838AE0E3D18DE0E1D18CE890E0D1
:1007B000E6D1F80160817181882777FD8095982FB7
:1007C0004AE007D289E0D3D180EA90E0D8D1F7019E
:1007D00060817181882777FD8095982F4AE0F9D153
:1007E00028960FB6F894DEBF0FBECDBFCF91DF9134
:1007F0001F910F91FF90EF90DF90CF90BF90AF903F
:100800009F908F907F906F905F904F903F902F9030
:1008100008952F923F924F925F926F927F928F92A4
:100820009F92AF92BF92CF92DF92EF92FF920F937F
:100830001F93DF93CF93CDB7DEB72E970FB6F89403
:10084000DEBF0FBECDBF5C012B0100E010E00296C1
:100850000F2EF3E88F2EF2E09F2EF02D840E951EC2
:100860009501295F3F4F0F2EF7E86F2EF2E07F2EA4
:10087000F02D640E751EBA0161577D4F7C836B832A
:10088000B501645F7F4F8F83988729873A876B878D
:100890007C87CA018A569E4F9E838D830415150559
:1008A0002CF042C10415150554F03EC10F2EF3E0A3
:1008B000CF2EF02D0F2EFBE02F2E3324F02D01151F
:1008C000110521F467E4F501608317C001301105BB
:1008D00021F468E5F501618319C00630110521F4A2
:1008E00069E5F50166831AC00B30110531F46CE43B
:1008F000F50163870F5F1F4F46C00D30110531F4BE
:1009000066E5F50165870EE010E070C00231110563
:100910002CF0F501E00FF11F71E470830F5F1F4FA2
:100920000230110581F58F8198859E878D87DC2C9B
:10093000F401E080F180028113818AE06D2D64DE94
:100940009C0140E050E0C801B70167D2CA01B9017B
:100950002AE030E040E050E060D2CB0177231CF485
:10096000909581959F4F6D857E854AE050E070D2CD
:10097000DA946D857E856F5F7F4F7E876D877FEF11
:10098000D716B1F6CEC00730110581F589859A8555
:100990009E878D87DC2CF301E080F180028113813A
:1009A0008AE06D2D31DE9C0140E050E0C801B701C6
:1009B00034D2CA01B9012AE030E040E050E02DD243
:1009C000CB0177231CF4909581959F4F6D857E8593
:1009D0004AE050E03DD2DA946D857E856F5F7F4FAF
:1009E0007E876D877FEFD716B1F60FC00C301105EB
:1009F00069F4EB81FC81808190E06B857C854AE025
:100A000050E026D20DE010E04DCF81010E301105EF
:100A100009F048CF68010894C11CD11C15012C0CA9
:100A20003D1CB501600F711F7A836983EE24FF249A
:100A30000BC00894C11CD11C0894211C311C898155
:100A40009A8101969A8389831E141F0454F4ED81C0
:100A5000FE810081118111230CF04FC0C701019765
:100A60004DC0ED81FE810081118162E06E198AE046
:100A7000CBDDBC01C80188D1CB016AE070E098D120
:100A8000282F392FE114F10421F5ED81FE818081B9
:100A9000918199237CF46DE2E981FA8160833323AB
:100AA0001CF4309521953F4FC901B1014AE050E057
:100AB000CFD132C060E3E981FA81608333231CF433
:100AC000309521953F4FC901B1014AE050E0C0D1B6
:100AD00023C0860133231CF4309521953F4FC90173
:100AE000B1014AE050E0B4D10894E11CF11C74E07B
:100AF000E716F1040CF0D2CE9CCFC70162E0681B70
:100B00008AE082DDBC01C8013FD1CB016AE070E020
:100B10004FD1282F392FDDCFEE24FF246894E1F840
:100B200088CF06E010E062CF2E960FB6F894DEBFB5
:100B30000FBECDBFCF91DF911F910F91FF90EF902E
:100B4000DF90CF90BF90AF909F908F907F906F90ED
:100B50005F904F903F902F900895E0E4F0E0108276
:100B60008CE089B988E18AB986E880830895982F56
:100B7000EBE2F0E0808185FFFDCF9CB90895CF9333
:100B8000DF93EC018881882329F02196F0DF8881AA
:100B90008823D9F7DF91CF910895CF93DF93FC019C
:100BA0008491882341F0EF012196E1DFFE01219637
:100BB00084918823D1F7DF91CF910895E3E5F0E0A8
:100BC000808185608083E9E5F0E0808181608083B9
:100BD00008950F931F93DF93CF93CDB7DEB761973F
:100BE0000FB6F894DEBF0FBECDBF242F8E010F5F6E
:100BF0001F4FA80130E04BD1C801C1DF61960FB68D
:100C0000F894DEBF0FBECDBFCF91DF911F910F9142
:100C100008951F920F920FB60F9211246F927F9238
:100C20008F929F92AF92BF92CF92DF92EF92FF92FC
:100C30000F931F932F933F934F935F936F937F93E4
:100C40008F939F93AF93BF93EF93FF9384EB90E0C9
:100C500096DF0F2EF7E0EF2EF1E0FF2EF02D882427
:100C60009924689481F88E0C9F1C662477246894DC
:100C700062F86E0C7F1CC701B401A301FED90DE020
:100C800011E0CC24DD246894C1F8C00ED11EAA2442
:100C9000BB246894A2F8A00EB11EC801B601A5013C
:100CA00045DAF80160817181F60140815181F501D9
:100CB00020813181F70100811181F401E080F18010
:100CC000F301C080D1808091EE009091EF0009DBAC
:100CD00000EF10E04091EE005091EF00C80166E196
:100CE00070E097DDC8014BDF8AE041DF8DE03FDF38
:100CF000FF91EF91BF91AF919F918F917F916F91F4
:100D00005F914F913F912F911F910F91FF90EF9025
:100D1000DF90CF90BF90AF909F908F907F906F901B
:100D20000F900FBE0F901F90189517DFE4E3F0E0CF
:100D3000808188608083E5E3F0E080818860808343
:100D40006DDA5CDC3BDF109206017894E5E3F0E0BD
:100D5000A8E068E873E148EC50E080818A2780834E
:100D60009B01CA010197F1F721503040D1F7F5CF2F
:100D7000991B79E004C0991F961708F0961B881FED
:100D80007A95C9F780950895AA1BBB1B51E107C04E
:100D9000AA1FBB1FA617B70710F0A61BB70B881F0B
:100DA000991F5A95A9F780959095BC01CD0108959A
:100DB00097FB092E07260AD077FD04D0E5DF06D081
:100DC00000201AF4709561957F4F0895F6F790957D
:100DD00081959F4F0895A1E21A2EAA1BBB1BFD010E
:100DE0000DC0AA1FBB1FEE1FFF1FA217B307E4070A
:100DF000F50720F0A21BB30BE40BF50B661F771F62
:100E0000881F991F1A9469F7609570958095909541
:100E10009B01AC01BD01CF01089597FB092E05266A
:100E20000ED057FD04D0D7DF0AD0001C38F45095FF
:100E30004095309521953F4F4F4F5F4F0895F6F7FE
:100E400090958095709561957F4F8F4F9F4F089536
:100E5000FB019F01E8944230BCF04532ACF44A30CB
:100E600029F497FB1EF4909581959F4F642F772767
:100E70008BDF805D8A330CF0895D8193CB01009715
:100E8000A9F716F45DE251931082C90132C0FA014C
:100E9000CF93FF93EF9322303CF125322CF5C22FF4
:100EA000E894CA3049F497FB3EF49095809570958C
:100EB00061957F4F8F4F9F4F2C2F33274427552706
:100EC000FF93EF9388DFEF91FF91605D6A330CF041
:100ED000695D6193B901CA016050704080409040E3
:100EE00059F716F4CDE2C19310828F919F91CF9163
:100EF00000C0DC01FC01672F71917723E1F7329785
:100F000004C07C916D9370836291AE17BF07C8F3E4
:060F10000895F894FFCFE4
:100F1600200020535049205820646976696465642E
:100F2600203D200020535049205A20646976696488
:100F36006564203D20002049203D200020706F730D
:100F46005863616C6962726174696F6E203D20003E
:100F560020706F735A63616C6962726174696F6E37
:100F6600203D20002053504920582064697669644A
:100F76006564203D20006F205FE8A8A9AAABACAD50
:100F86008FC700C800C900CA00CB00CC00CD00CE78
:0E0F960000CF00D000C70100000001000000E5
:00000001FF
