:1000000012C02CC02BC02AC029C028C027C026C0BF
:1000100025C03BC523C022C021C020C01FC01EC0B8
:100020001DC01CC01BC011241FBECFE5D4E0DEBF25
:10003000CDBF10E0A0E6B0E0ECE3FDE002C005902B
:100040000D92AA3DB107D9F710E0AAEDB0E001C0CA
:100050001D92AF3FB107E1F787D56EC6D1CF8FB9FB
:10006000EEE2F0E080818823ECF70895EEE2F0E024
:1000700080818823ECF78FB108950F931F938CE252
:1000800087BB81E58DB908E310E0F80180818B7FA3
:10009000808380E2E4DF8FE5E2DFF8018081846025
:1000A00080831F910F910895AF92BF92CF92DF92FC
:1000B000EF92FF921F93CF93DF935C017B016A0164
:1000C000E8E3F0E080818B7F8083E091C100F091D4
:1000D000C2008081C4DFC1E0D0E001C021968FEF73
:1000E000BEDFC4DF182F8FEFBADFC0DF9E012150C3
:1000F000304021303105A1F022303105A9F0232B09
:10010000B9F4992787FD9095982F8827212F3327B9
:1001100027FD3095820F931FF50191838083DECFF9
:10012000F70110828183DACFF6011082818303C048
:10013000C330D1059CF28DE08A95F1F7E8E3F0E059
:10014000808184608083DF91CF911F91FF90EF9039
:10015000DF90CF90BF90AF9008952F923F924F9233
:100160005F926F927F928F929F92AF92BF92CF9247
:10017000DF92EF92FF920F931F93DF93CF9300D004
:1001800000D0CDB7DEB79C838B83DB012801FC0157
:10019000E656FE4F71836083FC01E456FE4F5183A7
:1001A0004083FC01E256FE4F31832083FC01EC507A
:1001B000FE4F80818F5F6AE0EED4692F908370E0FC
:1001C000CB0184529F4F880F991FEB81FC81E80F70
:1001D000F91FB183A083CB018A519F4F880F991FCC
:1001E000EB81FC81E80FF91F5183408360517F4F01
:1001F000660F771FEB81FC81E60FF71F31832083A9
:1002000086B3EB81FC81E157FD4F86958095817027
:100210008083662457FC6094762C0B811C810D58DA
:100220001D4F8B819C8189589D4F9A838983EB81D7
:10023000FC81E557FD4F80819181880F991FAA2786
:1002400097FDA095BA2FE981FA8120813181428101
:100250005381281B390B4A0B5B0B240D351D461DA2
:10026000571DCA01B901660F771F881F991F660FB6
:10027000771F881F991F620F731F841F951F22E02D
:1002800030E040E050E0DCD4F80180809180A28032
:10029000B380821A930AA40AB50A80829182A2824C
:1002A000B382EE24D7FCE094FE2C0B811C81055810
:1002B0001D4F0F2EFFE72F2EF2E03F2EF02D8B81EA
:1002C0009C81280E391EFC01E357FD4F80819181EE
:1002D000880F991FAA2797FDA095BA2FF1012081B9
:1002E000318142815381281B390B4A0B5B0B2C0D4A
:1002F0003D1D4E1D5F1DCA01B901660F771F881F86
:10030000991F660F771F881F991F620F731F841F25
:10031000951F22E030E040E050E092D4F801808167
:100320009181A281B381280F391F4A1F5B1F20834F
:10033000318342835383E981FA8140825182628210
:100340007382F101C082D182E282F382F1E38F16DF
:10035000F7E59F06F5E0AF06F0E0BF0664F0EB813D
:10036000FC81ED58FD4F80E397E5A5E0B0E0808388
:100370009183A283B383EB81FC81E558FD4F80819B
:100380009181A281B38181539745A540B04064F02B
:10039000EB81FC81E558FD4F80E397E5A5E0B0E0F7
:1003A00080839183A283B383EB81FC81ED58FD4F61
:1003B00080819181A281B381BB2344F4EB81FC81D4
:1003C000ED58FD4F1082118212821382EB81FC8165
:1003D000E558FD4F80819181A281B381BB2344F414
:1003E000EB81FC81E558FD4F10821182128213824D
:1003F0000B811C810D571D4FEB81FC81ED58FD4F8A
:10040000608171818281938127EC31E040E050E08E
:10041000F5D3F80120833183428353832B813C81C0
:1004200029573D4FEB81FC81E558FD4F808191813B
:10043000A281B381892F9A2FAB2FBB27F90180832B
:100440009183A283B3830F900F900F900F90CF9161
:10045000DF911F910F91FF90EF90DF90CF90BF90B1
:10046000AF909F908F907F906F905F904F903F9054
:100470002F900895E8E3F0E0808183608083089501
:10048000662319F421E030E00DC021E030E090E077
:10049000A901489F9001499F300D589F300D1124AC
:1004A0006150B1F7822F932F08952F923F924F9270
:1004B0005F926F927F928F929F92AF92BF92CF92F4
:1004C000DF92EF92FF920F931F93DF93CF93CDB7FD
:1004D000DEB728970FB6F894DEBF0FBECDBF988762
:1004E0008F831A8219821C821B821E821D8200E069
:1004F00010E00F2EF3E0AF2EBB24F02DAC0EBD1E8E
:100500000F2EF5E0CF2EDD24F02DCC0EDD1E7E016A
:100510000894E11CF11CC701B501A601C5DD0F5F00
:100520001F4F04311105B9F7AA24BB2465016624C5
:1005300077244301EE24FF2487010F2EF2E72F2EAC
:10054000F0E03F2EF02D0F2EF4E84F2EF0E05F2E5E
:10055000F02DCE010196BE016D5F7F4FAE014B5F66
:100560005F4FA2DD89819A81AA2797FDA095BA2FB6
:10057000A80EB91ECA1EDB1E8D819E81AA2797FD7B
:10058000A095BA2F680E791E8A1E9B1E8AE02BD278
:100590008DE029D280E690E02ED2C601B5014AE076
:1005A00054D289E020D2C10126D2C401B3014AE06D
:1005B0004CD289E018D2C2011ED2C801B7014AE06C
:1005C00044D20894E11CF11C011D111D88EEE816AF
:1005D00083E0F80680E0080780E0180709F0B9CF4B
:1005E0000F81188505571D4FC601B50128EE33E070
:1005F00040E050E025D3F80131832083EF80F88478
:100600008DE892E0E80EF91EC401B30128EE33E054
:1006100040E050E015D3F701318320838AE0E3D135
:100620008DE0E1D18AE890E0E6D1F8016081718146
:10063000882777FD8095982F4AE007D289E0D3D1AB
:100640008EE990E0D8D1F70160817181882777FD2C
:100650008095982F4AE0F9D128960FB6F894DEBF1E
:100660000FBECDBFCF91DF911F910F91FF90EF9003
:10067000DF90CF90BF90AF909F908F907F906F90C2
:100680005F904F903F902F9008952F923F924F92FE
:100690005F926F927F928F929F92AF92BF92CF9212
:1006A000DF92EF92FF920F931F93DF93CF93CDB71B
:1006B000DEB72E970FB6F894DEBF0FBECDBF5C013C
:1006C0002B0100E010E002960F2EF3E88F2EF2E0EF
:1006D0009F2EF02D840E951E9501295F3F4F0F2E02
:1006E000F7E86F2EF2E07F2EF02D640E751EBA0132
:1006F00061577D4F7C836B83B501645F7F4F8F8330
:10070000988729873A876B877C87CA018A569E4FCC
:100710009E838D83041515052CF042C10415150523
:1007200054F03EC10F2EF3E0CF2EF02D0F2EFBE044
:100730002F2E3324F02D0115110521F467E4F50166
:10074000608317C00130110521F468E5F50161836C
:1007500019C00630110521F469E5F50166831AC058
:100760000B30110531F46CE4F50163870F5F1F4F07
:1007700046C00D30110531F466E5F50165870EE0E0
:1007800010E070C0023111052CF0F501E00FF11FEF
:1007900071E470830F5F1F4F0230110581F58F8167
:1007A00098859E878D87DC2CF401E080F1800281A2
:1007B00013818AE06D2D64DE9C0140E050E0C801A9
:1007C000B7013ED2CA01B9012AE030E040E050E072
:1007D00037D2CB0177231CF4909581959F4F6D857F
:1007E0007E854AE050E047D2DA946D857E856F5F62
:1007F0007F4F7E876D877FEFD716B1F6CEC007306B
:10080000110581F589859A859E878D87DC2CF301FA
:10081000E080F180028113818AE06D2D31DE9C0140
:1008200040E050E0C801B7010BD2CA01B9012AE08B
:1008300030E040E050E004D2CB0177231CF49095E7
:1008400081959F4F6D857E854AE050E014D2DA9401
:100850006D857E856F5F7F4F7E876D877FEFD716B3
:10086000B1F60FC00C30110569F4EB81FC81808179
:1008700090E06B857C854AE050E0FDD10DE010E012
:100880004DCF81010E30110509F048CF6801089461
:10089000C11CD11C15012C0C3D1CB501600F711F32
:1008A0007A836983EE24FF240BC00894C11CD11CF9
:1008B0000894211C311C89819A8101969A8389832D
:1008C0001E141F0454F4ED81FE8100811181112357
:1008D0000CF04FC0C70101974DC0ED81FE81008132
:1008E000118162E06E198AE0CBDDBC01C8015FD1E5
:1008F000CB016AE070E06FD1282F392FE114F104A9
:1009000021F5ED81FE818081918199237CF46DE256
:10091000E981FA81608333231CF4309521953F4FA0
:10092000C901B1014AE050E0A6D132C060E3E981DB
:10093000FA81608333231CF4309521953F4FC90120
:10094000B1014AE050E097D123C0860133231CF463
:10095000309521953F4FC901B1014AE050E08BD15C
:100960000894E11CF11C74E0E716F1040CF0D2CEFF
:100970009CCFC70162E0681B8AE082DDBC01C80130
:1009800016D1CB016AE070E026D1282F392FDDCFB8
:10099000EE24FF246894E1F888CF06E010E062CFEF
:1009A0002E960FB6F894DEBF0FBECDBFCF91DF916C
:1009B0001F910F91FF90EF90DF90CF90BF90AF907D
:1009C0009F908F907F906F905F904F903F902F906F
:1009D0000895E0E4F0E010828CE089B988E18AB9FA
:1009E00086E880830895982FEBE2F0E0808185FF10
:1009F000FDCF9CB90895CF93DF93EC0188818823C4
:100A000029F02196F0DF88818823D9F7DF91CF91F3
:100A10000895CF93DF93FC018491882341F0EF0187
:100A20002196E1DFFE01219684918823D1F7DF91A1
:100A3000CF910895E3E5F0E0808185608083E9E56A
:100A4000F0E080818160808308950F931F93DF938E
:100A5000CF93CDB7DEB761970FB6F894DEBF0FBE68
:100A6000CDBF242F8E010F5F1F4FA80130E022D190
:100A7000C801C1DF61960FB6F894DEBF0FBECDBFCF
:100A8000CF91DF911F910F9108951F920F920FB692
:100A90000F921124CF92DF92EF92FF920F931F9348
:100AA0002F933F934F935F936F937F938F939F9376
:100AB000AF93BF93EF93FF93E5E3F0E0808190E283
:100AC0008927808303EF10E0EE24FF246894E1F887
:100AD000E00EF11ECC24DD246894C2F8C00ED11EB5
:100AE000C801B701A601E0DAA9EFB0E0FD0161910C
:100AF00071914081518114962D913C911597F80187
:100B000000811181F701E080F180F601C080D18081
:100B10008091DA009091DB0020DB0CED10E0409139
:100B2000DA005091DB00C80166E170E0AEDDC8017B
:100B300062DF8BE058DF8DE056DFFF91EF91BF91D0
:100B4000AF919F918F917F916F915F914F913F9165
:100B50002F911F910F91FF90EF90DF90CF900F900A
:100B60000FBE0F901F90189534DFE4E3F0E0808112
:100B700080628083E5E3F0E08081806280837DDABB
:100B800079DC58DF1092F2008091DA009091DB005E
:100B90008CDC7894FFCF991B79E004C0991F9617DD
:100BA00008F0961B881F7A95C9F780950895AA1BAF
:100BB000BB1B51E107C0AA1FBB1FA617B70710F048
:100BC000A61BB70B881F991F5A95A9F7809590957A
:100BD000BC01CD01089597FB092E07260AD077FDA9
:100BE00004D0E5DF06D000201AF4709561957F4FA0
:100BF0000895F6F7909581959F4F0895A1E21A2EDA
:100C0000AA1BBB1BFD010DC0AA1FBB1FEE1FFF1FB0
:100C1000A217B307E407F50720F0A21BB30BE40B00
:100C2000F50B661F771F881F991F1A9469F7609547
:100C30007095809590959B01AC01BD01CF01089501
:100C400097FB092E05260ED057FD04D0D7DF0AD01A
:100C5000001C38F450954095309521953F4F4F4FEB
:100C60005F4F0895F6F790958095709561957F4F49
:100C70008F4F9F4F0895FB019F01E8944230BCF0D5
:100C80004532ACF44A3029F497FB1EF490958195D7
:100C90009F4F642F77278BDF805D8A330CF0895D4F
:100CA0008193CB010097A9F716F45DE2519310826E
:100CB000C90132C0FA01CF93FF93EF9322303CF188
:100CC00025322CF5C22FE894CA3049F497FB3EF444
:100CD00090958095709561957F4F8F4F9F4F2C2FEA
:100CE000332744275527FF93EF9388DFEF91FF9138
:100CF000605D6A330CF0695D6193B901CA016050AF
:100D000070408040904059F716F4CDE2C1931082B4
:100D10008F919F91CF9100C0DC01FC01672F7191F1
:100D20007723E1F7329704C07C916D9370836291D1
:0C0D3000AE17BF07C8F30895F894FFCF7A
:100D3C002053504920582064697669646564203DCD
:100D4C00200020535049205A2064697669646564F8
:100D5C00203D20002049203D200020706F735863F7
:100D6C00616C6962726174696F6E203D2000207045
:100D7C006F735A63616C6962726174696F6E203D46
:100D8C00200057205FE8A8A9AAABACAD8FB300B484
:100D9C0000B500B600B700B800B900BA00BB00BC83
:0A0DAC0000C7010000000100000074
:00000001FF
